{
  "address": "0x5FbDB2315678afecb367f032d93F642f64180aa3",
  "abi": [
    {
      "anonymous": false,
      "inputs": [
        {
          "indexed": true,
          "internalType": "bytes32",
          "name": "role",
          "type": "bytes32"
        },
        {
          "indexed": true,
          "internalType": "bytes32",
          "name": "previousAdminRole",
          "type": "bytes32"
        },
        {
          "indexed": true,
          "internalType": "bytes32",
          "name": "newAdminRole",
          "type": "bytes32"
        }
      ],
      "name": "RoleAdminChanged",
      "type": "event"
    },
    {
      "anonymous": false,
      "inputs": [
        {
          "indexed": true,
          "internalType": "bytes32",
          "name": "role",
          "type": "bytes32"
        },
        {
          "indexed": true,
          "internalType": "address",
          "name": "account",
          "type": "address"
        },
        {
          "indexed": true,
          "internalType": "address",
          "name": "sender",
          "type": "address"
        }
      ],
      "name": "RoleGranted",
      "type": "event"
    },
    {
      "anonymous": false,
      "inputs": [
        {
          "indexed": true,
          "internalType": "bytes32",
          "name": "role",
          "type": "bytes32"
        },
        {
          "indexed": true,
          "internalType": "address",
          "name": "account",
          "type": "address"
        },
        {
          "indexed": true,
          "internalType": "address",
          "name": "sender",
          "type": "address"
        }
      ],
      "name": "RoleRevoked",
      "type": "event"
    },
    {
      "inputs": [],
      "name": "DEFAULT_ADMIN_ROLE",
      "outputs": [
        {
          "internalType": "bytes32",
          "name": "",
          "type": "bytes32"
        }
      ],
      "stateMutability": "view",
      "type": "function"
    },
    {
      "inputs": [
        {
          "internalType": "bytes32",
          "name": "role",
          "type": "bytes32"
        }
      ],
      "name": "getRoleAdmin",
      "outputs": [
        {
          "internalType": "bytes32",
          "name": "",
          "type": "bytes32"
        }
      ],
      "stateMutability": "view",
      "type": "function"
    },
    {
      "inputs": [
        {
          "internalType": "bytes32",
          "name": "role",
          "type": "bytes32"
        },
        {
          "internalType": "address",
          "name": "account",
          "type": "address"
        }
      ],
      "name": "grantRole",
      "outputs": [],
      "stateMutability": "nonpayable",
      "type": "function"
    },
    {
      "inputs": [],
      "name": "greet",
      "outputs": [
        {
          "internalType": "string",
          "name": "",
          "type": "string"
        }
      ],
      "stateMutability": "view",
      "type": "function"
    },
    {
      "inputs": [
        {
          "internalType": "bytes32",
          "name": "role",
          "type": "bytes32"
        },
        {
          "internalType": "address",
          "name": "account",
          "type": "address"
        }
      ],
      "name": "hasRole",
      "outputs": [
        {
          "internalType": "bool",
          "name": "",
          "type": "bool"
        }
      ],
      "stateMutability": "view",
      "type": "function"
    },
    {
      "inputs": [
        {
          "internalType": "string",
          "name": "_greeting",
          "type": "string"
        }
      ],
      "name": "initialize",
      "outputs": [],
      "stateMutability": "nonpayable",
      "type": "function"
    },
    {
      "inputs": [
        {
          "internalType": "bytes32",
          "name": "role",
          "type": "bytes32"
        },
        {
          "internalType": "address",
          "name": "account",
          "type": "address"
        }
      ],
      "name": "renounceRole",
      "outputs": [],
      "stateMutability": "nonpayable",
      "type": "function"
    },
    {
      "inputs": [
        {
          "internalType": "bytes32",
          "name": "role",
          "type": "bytes32"
        },
        {
          "internalType": "address",
          "name": "account",
          "type": "address"
        }
      ],
      "name": "revokeRole",
      "outputs": [],
      "stateMutability": "nonpayable",
      "type": "function"
    },
    {
      "inputs": [
        {
          "internalType": "string",
          "name": "_greeting",
          "type": "string"
        }
      ],
      "name": "setGreeting",
      "outputs": [],
      "stateMutability": "nonpayable",
      "type": "function"
    },
    {
      "inputs": [
        {
          "internalType": "bytes4",
          "name": "interfaceId",
          "type": "bytes4"
        }
      ],
      "name": "supportsInterface",
      "outputs": [
        {
          "internalType": "bool",
          "name": "",
          "type": "bool"
        }
      ],
      "stateMutability": "view",
      "type": "function"
    }
  ],
  "transactionHash": "0x29d43784800620bf5cbd430321efaa64800ef4596b4ee5ab76858363635970f3",
  "args": [],
  "solcInputHash": "2528a2c65fa2bad58a9427479b5ed0ca",
  "bytecode": "0x608060405234801561001057600080fd5b50610cba806100206000396000f3fe608060405234801561001057600080fd5b506004361061009e5760003560e01c8063a217fddf11610066578063a217fddf14610137578063a41368621461013f578063cfae321714610152578063d547741f14610167578063f62d18881461017a57600080fd5b806301ffc9a7146100a3578063248a9ca3146100cb5780632f2ff15d146100fc57806336568abe1461011157806391d1485414610124575b600080fd5b6100b66100b136600461097e565b61018d565b60405190151581526020015b60405180910390f35b6100ee6100d9366004610929565b60009081526065602052604090206001015490565b6040519081526020016100c2565b61010f61010a366004610942565b6101c4565b005b61010f61011f366004610942565b6101ef565b6100b6610132366004610942565b610272565b6100ee600081565b61010f61014d3660046109a8565b61029d565b61015a6102f3565b6040516100c29190610afa565b61010f610175366004610942565b610385565b61010f6101883660046109a8565b6103ab565b60006001600160e01b03198216637965db0b60e01b14806101be57506301ffc9a760e01b6001600160e01b03198316145b92915050565b6000828152606560205260409020600101546101e0813361043e565b6101ea83836104a2565b505050565b6001600160a01b03811633146102645760405162461bcd60e51b815260206004820152602f60248201527f416363657373436f6e74726f6c3a2063616e206f6e6c792072656e6f756e636560448201526e103937b632b9903337b91039b2b63360891b60648201526084015b60405180910390fd5b61026e8282610528565b5050565b60009182526065602090815260408084206001600160a01b0393909316845291905290205460ff1690565b60006102a9813361043e565b6102e06040518060400160405280601581526020017404a9b2ba3a34b7339023b932b2ba34b733903a379d60591b8152508361058f565b81516101ea906097906020850190610890565b60606097805461030290610c07565b80601f016020809104026020016040519081016040528092919081815260200182805461032e90610c07565b801561037b5780601f106103505761010080835404028352916020019161037b565b820191906000526020600020905b81548152906001019060200180831161035e57829003601f168201915b5050505050905090565b6000828152606560205260409020600101546103a1813361043e565b6101ea8383610528565b600054610100900460ff16806103c4575060005460ff16155b6103e05760405162461bcd60e51b815260040161025b90610b3b565b600054610100900460ff16158015610402576000805461ffff19166101011790555b8151610415906097906020850190610890565b5061041e6105d4565b610429600033610658565b801561026e576000805461ff00191690555050565b6104488282610272565b61026e57610460816001600160a01b03166014610662565b61046b836020610662565b60405160200161047c929190610a85565b60408051601f198184030181529082905262461bcd60e51b825261025b91600401610afa565b6104ac8282610272565b61026e5760008281526065602090815260408083206001600160a01b03851684529091529020805460ff191660011790556104e43390565b6001600160a01b0316816001600160a01b0316837f2f8788117e7eff1d82e926ec794901d17c78024a50270940304540a733656f0d60405160405180910390a45050565b6105328282610272565b1561026e5760008281526065602090815260408083206001600160a01b0385168085529252808320805460ff1916905551339285917ff6391f5c32d9c69d2a47ea670b442974b53935d1edc7fd64eb21e047a839171b9190a45050565b61026e82826040516024016105a5929190610b0d565b60408051601f198184030181529190526020810180516001600160e01b0316634b5c427760e01b179052610805565b600054610100900460ff16806105ed575060005460ff16155b6106095760405162461bcd60e51b815260040161025b90610b3b565b600054610100900460ff1615801561062b576000805461ffff19166101011790555b610633610826565b61063b610826565b610643610826565b8015610655576000805461ff00191690555b50565b61026e82826104a2565b60606000610671836002610ba1565b61067c906002610b89565b67ffffffffffffffff81111561069457610694610c6e565b6040519080825280601f01601f1916602001820160405280156106be576020820181803683370190505b509050600360fc1b816000815181106106d9576106d9610c58565b60200101906001600160f81b031916908160001a905350600f60fb1b8160018151811061070857610708610c58565b60200101906001600160f81b031916908160001a905350600061072c846002610ba1565b610737906001610b89565b90505b60018111156107af576f181899199a1a9b1b9c1cb0b131b232b360811b85600f166010811061076b5761076b610c58565b1a60f81b82828151811061078157610781610c58565b60200101906001600160f81b031916908160001a90535060049490941c936107a881610bf0565b905061073a565b5083156107fe5760405162461bcd60e51b815260206004820181905260248201527f537472696e67733a20686578206c656e67746820696e73756666696369656e74604482015260640161025b565b9392505050565b80516a636f6e736f6c652e6c6f67602083016000808483855afa5050505050565b600054610100900460ff168061083f575060005460ff16155b61085b5760405162461bcd60e51b815260040161025b90610b3b565b600054610100900460ff16158015610643576000805461ffff19166101011790558015610655576000805461ff001916905550565b82805461089c90610c07565b90600052602060002090601f0160209004810192826108be5760008555610904565b82601f106108d757805160ff1916838001178555610904565b82800160010185558215610904579182015b828111156109045782518255916020019190600101906108e9565b50610910929150610914565b5090565b5b808211156109105760008155600101610915565b60006020828403121561093b57600080fd5b5035919050565b6000806040838503121561095557600080fd5b8235915060208301356001600160a01b038116811461097357600080fd5b809150509250929050565b60006020828403121561099057600080fd5b81356001600160e01b0319811681146107fe57600080fd5b6000602082840312156109ba57600080fd5b813567ffffffffffffffff808211156109d257600080fd5b818401915084601f8301126109e657600080fd5b8135818111156109f8576109f8610c6e565b604051601f8201601f19908116603f01168101908382118183101715610a2057610a20610c6e565b81604052828152876020848701011115610a3957600080fd5b826020860160208301376000928101602001929092525095945050505050565b60008151808452610a71816020860160208601610bc0565b601f01601f19169290920160200192915050565b7f416363657373436f6e74726f6c3a206163636f756e7420000000000000000000815260008351610abd816017850160208801610bc0565b7001034b99036b4b9b9b4b733903937b6329607d1b6017918401918201528351610aee816028840160208801610bc0565b01602801949350505050565b6020815260006107fe6020830184610a59565b604081526000610b206040830185610a59565b8281036020840152610b328185610a59565b95945050505050565b6020808252602e908201527f496e697469616c697a61626c653a20636f6e747261637420697320616c72656160408201526d191e481a5b9a5d1a585b1a5e995960921b606082015260800190565b60008219821115610b9c57610b9c610c42565b500190565b6000816000190483118215151615610bbb57610bbb610c42565b500290565b60005b83811015610bdb578181015183820152602001610bc3565b83811115610bea576000848401525b50505050565b600081610bff57610bff610c42565b506000190190565b600181811c90821680610c1b57607f821691505b60208210811415610c3c57634e487b7160e01b600052602260045260246000fd5b50919050565b634e487b7160e01b600052601160045260246000fd5b634e487b7160e01b600052603260045260246000fd5b634e487b7160e01b600052604160045260246000fdfea2646970667358221220ef597608b2d501c7cd6fed2a1048723eda88511d6d055adc9c667b5422ce5f9d64736f6c63430008070033",
  "devdoc": {
    "kind": "dev",
    "methods": {
      "getRoleAdmin(bytes32)": {
        "details": "Returns the admin role that controls `role`. See {grantRole} and {revokeRole}. To change a role's admin, use {_setRoleAdmin}."
      },
      "grantRole(bytes32,address)": {
        "details": "Grants `role` to `account`. If `account` had not been already granted `role`, emits a {RoleGranted} event. Requirements: - the caller must have ``role``'s admin role."
      },
      "hasRole(bytes32,address)": {
        "details": "Returns `true` if `account` has been granted `role`."
      },
      "renounceRole(bytes32,address)": {
        "details": "Revokes `role` from the calling account. Roles are often managed via {grantRole} and {revokeRole}: this function's purpose is to provide a mechanism for accounts to lose their privileges if they are compromised (such as when a trusted device is misplaced). If the calling account had been granted `role`, emits a {RoleRevoked} event. Requirements: - the caller must be `account`."
      },
      "revokeRole(bytes32,address)": {
        "details": "Revokes `role` from `account`. If `account` had been granted `role`, emits a {RoleRevoked} event. Requirements: - the caller must have ``role``'s admin role."
      },
      "supportsInterface(bytes4)": {
        "details": "See {IERC165-supportsInterface}."
      }
    },
    "version": 1
  },
  "userdoc": {
    "kind": "user",
    "methods": {},
    "version": 1
  },
  "storageLayout": {
    "storage": [
      {
        "astId": 413,
        "contract": "contracts/Greeter.sol:Greeter",
        "label": "_initialized",
        "offset": 0,
        "slot": "0",
        "type": "t_bool"
      },
      {
        "astId": 416,
        "contract": "contracts/Greeter.sol:Greeter",
        "label": "_initializing",
        "offset": 1,
        "slot": "0",
        "type": "t_bool"
      },
      {
        "astId": 496,
        "contract": "contracts/Greeter.sol:Greeter",
        "label": "__gap",
        "offset": 0,
        "slot": "1",
        "type": "t_array(t_uint256)50_storage"
      },
      {
        "astId": 745,
        "contract": "contracts/Greeter.sol:Greeter",
        "label": "__gap",
        "offset": 0,
        "slot": "51",
        "type": "t_array(t_uint256)50_storage"
      },
      {
        "astId": 48,
        "contract": "contracts/Greeter.sol:Greeter",
        "label": "_roles",
        "offset": 0,
        "slot": "101",
        "type": "t_mapping(t_bytes32,t_struct(RoleData)43_storage)"
      },
      {
        "astId": 333,
        "contract": "contracts/Greeter.sol:Greeter",
        "label": "__gap",
        "offset": 0,
        "slot": "102",
        "type": "t_array(t_uint256)49_storage"
      },
      {
        "astId": 766,
        "contract": "contracts/Greeter.sol:Greeter",
        "label": "greeting",
        "offset": 0,
        "slot": "151",
        "type": "t_string_storage"
      }
    ],
    "types": {
      "t_address": {
        "encoding": "inplace",
        "label": "address",
        "numberOfBytes": "20"
      },
      "t_array(t_uint256)49_storage": {
        "base": "t_uint256",
        "encoding": "inplace",
        "label": "uint256[49]",
        "numberOfBytes": "1568"
      },
      "t_array(t_uint256)50_storage": {
        "base": "t_uint256",
        "encoding": "inplace",
        "label": "uint256[50]",
        "numberOfBytes": "1600"
      },
      "t_bool": {
        "encoding": "inplace",
        "label": "bool",
        "numberOfBytes": "1"
      },
      "t_bytes32": {
        "encoding": "inplace",
        "label": "bytes32",
        "numberOfBytes": "32"
      },
      "t_mapping(t_address,t_bool)": {
        "encoding": "mapping",
        "key": "t_address",
        "label": "mapping(address => bool)",
        "numberOfBytes": "32",
        "value": "t_bool"
      },
      "t_mapping(t_bytes32,t_struct(RoleData)43_storage)": {
        "encoding": "mapping",
        "key": "t_bytes32",
        "label": "mapping(bytes32 => struct AccessControlUpgradeable.RoleData)",
        "numberOfBytes": "32",
        "value": "t_struct(RoleData)43_storage"
      },
      "t_string_storage": {
        "encoding": "bytes",
        "label": "string",
        "numberOfBytes": "32"
      },
      "t_struct(RoleData)43_storage": {
        "encoding": "inplace",
        "label": "struct AccessControlUpgradeable.RoleData",
        "members": [
          {
            "astId": 40,
            "contract": "contracts/Greeter.sol:Greeter",
            "label": "members",
            "offset": 0,
            "slot": "0",
            "type": "t_mapping(t_address,t_bool)"
          },
          {
            "astId": 42,
            "contract": "contracts/Greeter.sol:Greeter",
            "label": "adminRole",
            "offset": 0,
            "slot": "1",
            "type": "t_bytes32"
          }
        ],
        "numberOfBytes": "64"
      },
      "t_uint256": {
        "encoding": "inplace",
        "label": "uint256",
        "numberOfBytes": "32"
      }
    }
  }
}